:040000007AEF04F09F
:10060000004144433A0000000C6E8A9A8A880A6AC4
:100610000CAE01D00A2A010E37D8060E0B6ED89008
:100620000A320B2EFCD73CD8050E0B6ED8900A323E
:100630000B2EFCD741D80A3A0F0E0A1648D8E82EDE
:10064000FED700F08A8ACCEC04F08A9A0CC00AF03B
:10065000D8900A32D8900A32D8900A32010E14D8B3
:10066000D8900A32D8900A321BD8D8900A3224D8AF
:100670002ED8E82EFED700F08A8ACCEC04F08A9AB5
:10068000CCEC04F0D5EF04F00A160A460A460A46F6
:100690008A500A18F70B0A188A6E0CC00AF012006A
:1006A000010E0A160A460A468A500A18FB0B0A1857
:1006B0008A6E0CC00AF01200010E0A160A468A5011
:1006C0000A18FD0B0A188A6E0CC00AF01200010EFF
:1006D0000A168A500A18FE0B0A188A6E030C0C6E52
:1006E0008A9A8A980A6A0CAE01D00A2A010E37D873
:1006F000060E0B6ED8900A320B2EFCD73CD8050E96
:100700000B6ED8900A320B2EFCD741D80A3A0F0E46
:100710000A1648D8E82EFED700F08A8ACCEC04F0FE
:100720008A9A0CC00AF0D8900A32D8900A32D8902F
:100730000A32010E14D8D8900A32D8900A321BD847
:10074000D8900A3224D82ED8E82EFED700F08A8A14
:10075000CCEC04F08A9AD5EC04F0CCEF04F00A1645
:100760000A460A460A468A500A18F70B0A188A6E81
:100770000CC00AF01200010E0A160A460A468A50F8
:100780000A18FB0B0A188A6E0CC00AF01200010E40
:100790000A160A468A500A18FD0B0A188A6E0CC0FF
:1007A0000AF01200010E0A168A500A18FE0B0A18E7
:1007B0008A6E030C9396939493929390939A939842
:1007C0008A968A948A928A908A9A8A98D5EC04F0BA
:1007D000D5EC04F0D5EC04F0D5EC04F0D5EC04F045
:1007E000D5EC04F0010E0D6E2ED88A968A948A827A
:1007F0008A808A8A8A98CCEC04F025D8D5EC04F05B
:100800000D2A030E0D64F0D717D88A968A948A822F
:100810008A908A8A8A98CCEC04F00ED8D5EC04F041
:10082000280E6FEC03F0100E6FEC03F0010E6FEC6E
:1008300003F00F0E6FEF03F08A968A948A828A90F3
:100840008A9A8A9812008A968A948A828A808A9AD8
:100850008A9812000F6E0DD00D507F0F08D00D50EA
:10086000BF0F05D00D50930F02D00D50D30F106E57
:1008700009D00F50010AF0E0030AF1E0010AF2E0AA
:10088000070AF3E010506FEC03F004D007D804EC33
:1008900003F00E2A03D8D8B41200F8D70EC0F6FF22
:1008A000060EF76E0800F5501200720ED36E0F0E92
:1008B000C16E070EB46EC00E936E180E946EDAEC15
:1008C00003F0010E6FEC03F00C0E6FEC03F0EDEC97
:1008D00004F00A0EB3EC04F0010E0D6E010E0E6E64
:1008E000010E2AEC04F0040E0C6E0B6AC60EA4EC8A
:1008F00004F0FFD7D20EF66E090EF76E000EF86EFA
:1009000000EE01F010EE08F00900F5CFEEFFE55023
:10091000E150FAE1000EF86E000155EF04F00A6EA6
:10092000C0EC04F00AC0C9FFC6BE0DD0C6500F0B04
:10093000080A04E0C6500F0B0B0A05E1C7B0FED74A
:10094000C0EC04F0C55012000D6EE3EC04F00D5045
:100950008FEC04F00C500F0B8FEC04F00B508FEC6D
:1009600004F0DDEF04F0096E3F0EC716C66AC56AD3
:10097000C686C78E94869488C68A09C0C8FF1200AE
:10098000C7A403D0096A092A01D0096AC5501F0B00
:100990000910D8B41200F4D7080EE82EFED700F0E4
:1009A000080EE82EFED700F01200240E096EB60ED7
:1009B000E82EFED7092EFCD71200C0EC04F0C58447
:1009C000C5A41200FDD7C0EC04F0C580C5A012007C
:0E09D000FDD70609090600000000C69A1200B5
:020000040020DA
:08000000FFFFFFFFFFFFFFFF00
:020000040030CA
:0E000000FF08191EFF8180FF0FC00FE00F40A8
:00000001FF
